:100000000110050000000000A01C0000FF0000001F
:10001000020C1DFFFFFFFFFFFFFFFF02165C7E03C8
:100020009000BEE06F6007EFF0E49000C1F0900038
:10003000BEE07001FE9000C1E004F0C39E50037F5B
:1000400000229000C17403F07F01220217D7E4FB65
:10005000EB25E025E024ADF812025DEB25E025E07C
:1000600024BDF81202760BBB04E622020F76BB0118
:100070000689828A83E0225002E722BBFE02E32245
:1000800089828A83E49322EF8DF0A4A8F0CF8CF0CC
:10009000A428CE8DF0A42EFE22BC000BBE0029EFBA
:1000A0008DF084FFADF022E4CCF875F008EF2FFF5F
:1000B000EE33FEEC33FCEE9DEC984005FCEE9DFE2D
:1000C0000FD5F0E9E4CEFD22EDF8F5F0EE8420D274
:1000D0001CFEADF075F008EF2FFFED33FD400798E3
:1000E0005006D5F0F222C398FD0FD5F0EA22BB01ED
:1000F0000A89828A83E0F5F0A3E022500687F0099E
:10010000E71922BBFE07E3F5F009E3192289828A89
:1001100083E493F5F074019322E88FF0A4CC8BF084
:10012000A42CFCE98EF0A42CFC8AF0EDA42CFCEAB3
:100130008EF0A4CDA8F08BF0A42DCC3825F0FDE9ED
:100140008FF0A42CCD35F0FCEB8EF0A4FEA9F0EBE3
:100150008FF0A4CFC5F02ECD39FEE43CFCEAA42DEF
:10016000CE35F0FDE43CFC2275F008758200EF2FDF
:10017000FFEE33FECD33CDCC33CCC58233C5829B6D
:10018000ED9AEC99E58298400CF582EE9BFEED9A93
:10019000FDEC99FC0FD5F0D6E4CEFBE4CDFAE4CC2F
:1001A000F9A88222B800C1B90059BA002DEC8BF031
:1001B00084CFCECDFCE5F0CBF97818EF2FFFEE33EE
:1001C000FEED33FDEC33FCEB33FB10D70399400419
:1001D000EB99FB0FD8E5E4F9FA227818EF2FFFEE40
:1001E00033FEED33FDEC33FCC933C910D7059BE971
:1001F0009A4007EC9BFCE99AF90FD8E0E4C9FAE4CD
:10020000CCFB2275F010EF2FFFEE33FEED33FDCC6B
:1002100033CCC833C810D7079BEC9AE899400AED55
:100220009BFDEC9AFCE899F80FD5F0DAE4CDFBE4FD
:10023000CCFAE4C8F922EB9FF5F0EA9E42F0E99D82
:1002400042F0E89C45F022E8600FECC313FCED138C
:10025000FDEE13FEEF13FFD8F122E8600FEFC3337A
:10026000FFEE33FEED33FDEC33FCD8F122E6FC0863
:10027000E6FD08E6FE08E6FF22E6FB08E6F908E6EA
:10028000FA08E6CBF822ECF608EDF608EEF608EFF1
:10029000F622ECF208EDF208EEF208EFF222D0833B
:1002A000D082E493F608740193F608740293F6087A
:1002B000740393F6740473D083D082E493F20874C9
:1002C0000193F208740293F208740393F2740473B6
:1002D0008A838982E4738E568F57E4F559F55AF56F
:1002E0005B9000D1E0F55AA3E0F55BE4F55890008F
:1002F000BFE070139000C1E0B4030CD37895E29492
:100300000018E29400401EE55825E02484F8E4F249
:1003100008F2E55825E025E0246CF81202A7000059
:1003200000000203DCE55825E02485F9E37002199A
:10033000E3701AE55825E02400F8E2FE08E2FFE544
:100340005825E0247CF8EEF208EFF28057E55825B6
:10035000E0247CF8E2FE08E2FFE55825E02400F8FE
:10036000E2FC08E2FD121B66D3EF955BEE955A4066
:1003700033E55825E02400F8E2FE08E2FFE55825C1
:10038000E0247CF8EEF208EFF2E55825E02484F84A
:10039000E4F208F2E55825E025E0246CF81202A703
:1003A00000000000E55825E02400F8E2FE08E2FF26
:1003B000E55825E025E0246CF8C000E2FB08E2F9EE
:1003C00008E2FA08E2CBF8E4FCFDEB2FFFEA3EFE80
:1003D000ED39FDEC38FCD000120282E55825E0240E
:1003E00084F808E22401F218E23400F20558E558D6
:1003F000C3940450030202DEE4F558E55825E024D6
:1004000085F9C3E3955719E39556400205590558F8
:10041000E558B404E6E559640460030204D674FFA9
:100420009000D3F0A3F0E4A3F0A3F0F558E558252D
:10043000E02484F8E2FE08E2FF4E70030204B9E40F
:10044000FCFDC004A905AA06AB07E55825E025E098
:10045000246CF8E2FC08E2FD08E2FE08E2FFD000AE
:100460001201948E5C8F5DD39000D4E0955D900076
:10047000D3E0955C4007E55CF0A3E55DF0C3900038
:10048000D6E0955D9000D5E0955C5007E55CF0A363
:10049000E55DF0E55825E02408F8E55CF208E55D47
:1004A000F2E55825E02484F8E4F208F2E55825E066
:1004B00025E0246CF81202A700000000C2080558CD
:1004C000E5586404600302041D9000D3E0FEA3E03D
:1004D000FFA3E0FCA3E0FD121B66D3EF9464EE944F
:1004E00000400312178022E4F554E55425E025E08E
:1004F00024BDF8C00012025DC00774732554F8E6ED
:10050000FFFBE4FAF9F8D007120109D000120276D5
:10051000E55425E025E024BDF8C00012025D78070F
:10052000120237D000120276E55425E025E024BD02
:10053000F812025DEC4D4E4F6076E55425E025E063
:10054000249DF812025DE55425E025E024BDF81253
:100550000269C312022650037F0322E55425E025D9
:10056000E0249DF8120269C000E55425E025E0244E
:10057000BDF812025DD000C3EF9BF558EE9AF55717
:10058000ED99F556EC98F555E47FFF7EFFFDFCAB49
:1005900058AA57A956A855C312022640037F032222
:1005A000E55425E02400F8E557F208E558F28015F7
:1005B000E554C39404500BE55425E02410F8E4F20C
:1005C00008F27F03220554E554640460030204DA50
:1005D000E4F554E55425E02408F8E2FE08E2FFE5DE
:1005E0005425E02400F8E2FC08E2FDD39FEC9E4095
:1005F0001EE55425E02408F8E2FE08E2FFC3ED9F63
:10060000FFEC9EFEE48F5C8E5BF55AF5598009E4A1
:10061000F55CF55BF55AF559E554C39404400302C3
:1006200006C2AF5CAE5BAD5AAC59780712024A8F76
:100630005C8E5B8D5A8C59300940E55425E025E0ED
:100640002440F8E2FC08E2FD08E2FE08E2FFE47B59
:1006500003FAF9F8120109EF255CFFEE355BFEEDB8
:10066000355AFDEC3559FC7802120237E55425E085
:1006700025E02440F81202828033E55425E025E08D
:100680002440F8E2FC08E2FD08E2FE08E2255CFFF7
:10069000EE355BFEED355AFDEC3559FC7801120262
:1006A00037E55425E025E02440F8120282E5542580
:1006B000E025E02440F8E2FC08E2FD08E2FE08E262
:1006C000FF7807120237E55425E02410F8EEF2080F
:1006D000EFF20554E554640460030205C37F07226A
:1006E000E4F557F556E55625E025E0246CF81202AE
:1006F000A7000000000556E556B404E912190CE401
:10070000F556E55625E025E0246CF8C000E2FC082B
:10071000E2FD08E2FE08E2FFE55625E025E024AD13
:10072000F8120269EF2BFFEE3AFEED39FDEC38FCD2
:10073000D0001202820556E556B404C60557E557A7
:10074000C3940540B7E4F556AF57E4FCFDFEC00482
:10075000A905AA06AB07E55625E025E0246CF8E2DA
:10076000FC08E2FD08E2FE08E2FFD0001201948FCF
:100770005B8E5A8D598C58AB5BAA5AA959A858C0A0
:100780000074732556F8E6FFE4FCFDFED00012016C
:10079000098F5B8E5A8D598C5878071202378F5B00
:1007A0008E5A8D598C58E47FE87E03FDFCAB5BAA22
:1007B0005AA959A858D31202264030E55B2418FFE5
:1007C000E55A34FCFEE55934FFFDE55834FFFCE5FD
:1007D0005625E025E0249DF8120276E55625E02412
:1007E00000F87403F20874E8F2801EE55625E0254F
:1007F000E0249DF812028E00000000E55625E0245A
:1008000000F8E55AF208E55BF2E55625E025E0241C
:100810006CF81202A700000000E55625E02484F8D9
:10082000E4F208F2E556C394045033E55625E0247B
:1008300000F8E2FE08E2FFE55625E02408F8EEF2B3
:1008400008EFF2E55625E02410F8E4F208F2E55648
:1008500025E025E02440F81202A70000000005561C
:10086000E556640460030207382285BA5C53BA0F68
:1008700043BA10E4F556E55625E025E024ADF8121C
:10088000028E000000000556E556B404E9755605D1
:1008900075ABFF121A86E4F557E55725E025E024ED
:1008A000ADF8C00012025DC004C005C006C00774E8
:1008B000CD2557F8E675F003A42480F582E4341BB7
:1008C000F583E493FB740193FA740293F91202C066
:1008D000A804A905AA06AB07D007D006D005D00406
:1008E000EF2BFFEE3AFEED39FDEC38FCD0001202A2
:1008F000760557E557C39404409FE4F5AB121A867A
:10090000E4F557E55725E025E024ADF8C0001202D4
:100910005DC004C005C006C00774CD2557F8E67554
:10092000F003A42480F582E4341BF583E493FB7484
:100930000193FA740293F91202C0A804A905AA0649
:10094000AB07D007D006D005D004C3EF9BFFEE9ACB
:10095000FEED99FDEC98FCD0001202760557E557A4
:10096000C39404409E1556E5566003020880E4F5E2
:1009700057E4755B10755A27F559F558AF5BAE5AB9
:10098000AD59AC58780712024A8F5B8E5A8D598C3C
:1009900058E55725E025E024ADF8120269120194CC
:1009A0008F5B8E5A8D598C5874732557F8A607059E
:1009B00057E557B404BB855CBA2230040E75570066
:1009C000755814755900755A64800C755700755820
:1009D00014755900755A64E4FDED25E02458F8E2D9
:1009E000FE08E2FFED25E02419F9D3E39F19E39E09
:1009F0004016ED25E02418F8E2FE08E2FFED25E0C0
:100A00002458F8EEF208EFF2EDC39402506AE5576D
:100A1000C313FEE55813FFED25E02419F9D3E39F36
:100A200019E39E5023ED75F008A4247DF8A657081D
:100A3000A658E55825E0FFE55733F8ED25E02458A2
:100A4000C8F208EFF2020ACCED25E02419F9D3E34D
:100A5000946419E394005003020ACCED25E0245875
:100A6000F9E3C313FE09E313FFED75F008A4247D39
:100A7000F8A60608A6078064E559C313FEE55A13D5
:100A8000FFED25E02419F9D3E39F19E39E5022EDF1
:100A900075F008A4247DF8A65908A65AE55A25E061
:100AA000FFE55933F8ED25E02458C8F208EFF2804D
:100AB0002BED25E02419F9D3E3949019E394014038
:100AC0001BED25E02458F9E3C313FE09E313FFED02
:100AD00075F008A4247DF8A60608A6070DED6404A9
:100AE00060030209C9E4FDED75F008A4247DF8E671
:100AF000FE08E6FFED25E02460F8EEF208EFF20DC7
:100B0000BD04E42220CA03020C1C7862E6700302D2
:100B10000C1CE4786CF6F55474622554F8E6FF7406
:100B20004A2554F8A60774622554F8E4F60554E5FE
:100B300054B40AE4786CE6700320CA12E4F55474E5
:100B40004A2554F8E4F60554E554B40AF222E54A7D
:100B500024E0601F24F0602224F0604224F06062F0
:100B600024F0606624F0606A2460706FE4FF121A5B
:100B7000F280687F01121AF28061787D7600087633
:100B80001478857600087614788D76000876647877
:100B90009576000876647870E64410F6803D787D9E
:100BA000760008761478857600087614788D7600BD
:100BB000087664789576000876647870E654EFF6E7
:100BC00080197870E64401F680117870E654FEF6DC
:100BD0008009E4FF121BC17872A607E54A54F0644D
:100BE000807049E54B454C6043E54BFE7C00E425B5
:100BF0004CFFEC3EFEC3EF940AEE9400402EE54A13
:100C0000540FFDBD0F19E4F554E55475F008A42404
:100C10007DF8A60608A6070554E554B404EB22EDBA
:100C200075F008A4247DF8A60608A60722439F04B1
:100C3000E453C6DFE5C600B5C6F3758300758207C9
:100C400075FD0DE4E5FEF4FF75830075820675FD04
:100C50000DE4E5FEB50704F59E8003759E0078104F
:100C60000000D8FC53C6E043C60843C6807596050D
:100C700075970375830075820475FD0D85FE8F756C
:100C8000830075820375FD0DE4E5FEF4FF758300B6
:100C900075820275FD0DE4E5FEB50704F595800348
:100CA00075958375BE0E5392FE9001007F007E0203
:100CB000E4F0A3DFFCDEFA78007F00E4F208DFFC5A
:100CC00078FFE4F6D8FD7581D8020CFA0200000224
:100CD000105AE493A3F8E493A34003F68001F208CA
:100CE000DFF48029E493A3F85407240CC8C333C469
:100CF000540F4420C8834004F456800146F6DFE4D4
:100D0000800B0102040810204080901582E47E01CF
:100D10009360BCA3FF543F30E509541FFEE493A346
:100D200060010ECF54C025E060A840B8E493A3FA58
:100D3000E493A3F8E493A3C8C582C8CAC583CAF0E4
:100D4000A3C8C582C8CAC583CADFE9DEE780BE750D
:100D500057FF30040B753B00753C00753D3380092F
:100D6000753B00753C00753D2BE4F55CAB3BE53D08
:100D7000F92402F53DE53CFA3400F53C1200DEFFB3
:100D8000E55C25E0243EF8A6F008A607055CE55CD6
:100D9000B404D9E4F55CE55C25E0243EF8E6FE0801
:100DA000E6FFE55C25E02411F9C3E39F19E39E40CB
:100DB00003020E4FE55C25E02442F8E6FE08E6FF5C
:100DC000E55C25E02414F8E2FC08E2FDC39FEC9EFC
:100DD0004003020E4FE55C7020E55C25E02410F82E
:100DE000E2FE08E2FF241EF55BE43EF55AEF24F62E
:100DF000F559EE34FFF5588021E55CB4011C25E07F
:100E00002410F8E2FE08E2FF241EF55BE43EF55AEA
:100E1000EF24F6F559EE34FFF558C3ED955BEC95EC
:100E20005A5008ED9559EC95585011E55C25E02491
:100E300011F9C3E3940A19E394005023AF5C7401E1
:100E4000A807088002C333D8FCF45257E55C24029B
:100E5000FF7401A807088002C333D8FCF452570579
:100E60005CE55C64026003020D868557242275569A
:100E7000077D0774017E00A856088005C333CE3372
:100E8000CED8F9FFACACECFBE4EF5B7003D556E3D6
:100E9000ED601D74017E00A805088005C333CE33C4
:100EA000CED8F9FFACAEECFBE4EF5B70031D80E045
:100EB000AF567401A807088002C333D8FCF5AC74A0
:100EC00001A805088002C333D8FCFFF5AD8FAE53EF
:100ED000AACF85BA5F53BA0F43BA10E4F55AF55951
:100EE000F558F557121A86E4F55674CD2556F8E6EE
:100EF00075F003A42480F582E4341BF583E4937435
:100F00000193FA740293F91202C08F5E8E5D8D5CBC
:100F10008C5BAB5AAA59A958A857C3120226500C89
:100F2000855E5A855D59855C58855B570556E55643
:100F3000C3940440B5AF5AAE59AD58AC57780212BD
:100F40000237E55A2FF55AE5593EF559E5583DF572
:100F500058E5573CF557AF5AAE59AD58FC781012CA
:100F600002378FB3AF5AAE59AD58AC57780812025A
:100F7000378FB2855AB143AA30855FBA75AC037515
:100F8000ADC075AEC022C0E0C0F0C083C082C0D08A
:100F900075D008C2CF30CD0302104F30CB4720CCE4
:100FA000447861A6CEE6FFC39480403075F003EF2D
:100FB000A42447F582E5F03415F583E493FB74012E
:100FC00093FA7402938B478A48F5490549E54970BD
:100FD00002054814F912005EF5CE80097861E62515
:100FE00046F8E6F5CE30CC297861E6C3948040150A
:100FF000AB470549E549AA487002054814F91200B3
:101000005EF5CE8056786106E62546F8E6F5CE8098
:101010004A20CB47AFCE7861E6FE702EBF10055355
:10102000809F8037BF2005438060802FBF500878A5
:1010300070E64401F68024BF60087870E654FEF63E
:1010400080197862A60F18068011EEC3940A500822
:101050007861E62462F8A60F786106786C7601D094
:10106000D0D082D083D0F0D0E032121B2E7D01E4AC
:10107000FF12197E7F01121AF27F01121B11121C3E
:101080007A121C6D121AAC1215F11219E9121A52C9
:10109000D2AF751C01E51C24FD601114601924FEFB
:1010A000602614602A1460702407706F12187D1275
:1010B0001505751C048064D2D8E51D70FC12003E35
:1010C000121B98751C0680531204D78F1C804CD3BA
:1010D0009000C7E094009000C6E09400400CA3E0AC
:1010E00024FFF09000C6E034FFF0D37895E294003E
:1010F00018E29400400A08E224FFF218E234FFF2FA
:101100009000C3E004F070069000C2E004F01212F8
:101110001612113D8F1C8003751C049000D7E0B49B
:101120000124E4786CF6FF121C7AE4F0F518F51946
:10113000000519E51970020518B42CF4E518B4017E
:10114000EF7F01121C7A120AF402108522E4F55492
:101150007555081213621218C81213FA1219B490B6
:1011600000BFEFF012000EEF605E7F01121A1EAD9D
:1011700007AC06D39000C7E094009000C6E094004E
:10118000400FED7802CEC313CE13D8F9FDAC068024
:101190002E300811EDAE047803CEC313CE13D8F968
:1011A000FDAC06801AC37869E2941418E2940050EA
:1011B0000EECC4F854F0C868FCEDC4540F48FDAF01
:1011C00005AE041202C68003AF55229000BEE0F5C2
:1011D00054E5546034E49000CAF0A3F09000C9E0F4
:1011E00004F070069000C8E004F07F05121A1ED3C8
:1011F0009000C9E09F9000C8E09E4014E4FF1217E1
:1012000024E49000C0F07F0322E49000C8F0A3F033
:101210009000C0E06554600BAF541217249000C0DA
:10122000E554F0AF5522E4F55430091AE55475F051
:1012300008A4247FFFE55425E02418F8E2FC08E226
:10124000FD121BAD8025E55475F008A4247FFBE555
:101250005425E02418F9E3FE09E37802CEC313CE47
:1012600013D8F9FDAC06AF03121BADE55475F008B9
:10127000A42481FFE55425E02410F8E2FC08E2FDF7
:10128000121BADE55475F008A42483FBC003E5549C
:1012900025E02400F8E2FE08E2FFE4FCFDE5542529
:1012A000E025E0249DF8120269EF2BFFEE3AFEEDF7
:1012B00039FDEC38FC7804120237AD07AC06D007D4
:1012C000121BAD0554E554C394045003021219785F
:1012D00070E6F520227DFFE522700302135C787D25
:1012E000E6FE08E6FFC37821E29F18E29E401078F0
:1012F0008DE6FE08E6FF7825E29F18E29E507078A2
:1013000085E6FE08E6FFC37823E29F18E29E4010C0
:101310007895E6FE08E6FF7827E29F18E29E504F98
:101320007814E2FE08E2FF7811E22FF55818E23E49
:10133000F5577816E2FE08E2FF7813E22FFF18E275
:101340003EAB07FAEB25E0FFEA33FEC3E5589FE525
:10135000579E50035305FAE55825E0FFE55733FE45
:10136000C3EB9FEA9E50085305F580035305F08DAB
:101370002322E4F556E55625E02410F8E2F5570857
:10138000E2F558AE57FFE4FCFD7B64FAF9F8120170
:1013900009C006C007E55625E02496F582E434002E
:1013A000F583E0FEA3E0FFFBAA06E4F9F8D007D03E
:1013B00006120194E55625E02420F8EEF208EFF23B
:1013C000AE57AF58E4FCFD7B64FAF9F8120109C08E
:1013D00006C007E55625E02496F582E43400F5833F
:1013E000E0FEA3E0FFFBAA06E4F9F8D007D006125E
:1013F0000194E55625E02418F8EEF208EFF20556C0
:10140000E5566404600302136522E4F556E55625AB
:10141000E02408F8E2FE08E2FFE55625E02400F8A3
:10142000E2FC08E2FDC39FEC9E5048E55625E0240F
:1014300009F8C3E29DF55818E29CF557FEAF58E451
:10144000FCFD7B64FAF9F8120109C006C007E556F5
:1014500025E02496F582E43400F583E0FEA3E0FF66
:10146000FBAA06E4F9F8D007D0061201948E598F32
:101470005A8009E4F557F558F559F55AD3E55A94C9
:101480000AE55994004002D2080556E55664046006
:10149000030213FD22E4FFFEEE75F008A4247DF89C
:1014A000E6FC08E6FDEE25E02421F9C3E39D19E3FF
:1014B0009C401DEE25E02425F9C3E3940519E3942F
:1014C00000400D7401A806088002C333D8FC42070F
:1014D000EE75F008A4248DF8E6FC08E6FDEE25E0A4
:1014E0002425F9C3E39D19E39C4021EE25E0242146
:1014F000F9C3E3940519E394004011EE2402FD744E
:1015000001A805088002C333D8FC42070EEE64022E
:1015100070868F2222E4F554F555121B4BE490009F
:10152000BEF09000C0F0A3F09000C8F0A3F0A3F0CC
:10153000A3F09000DAF0A3F07894F208F2F521FF1E
:10154000EF25E02496F582E43400F583E0FCA3E087
:10155000FD9000D2E02DF09000D1E03CF00FBF02F2
:10156000DF9000D1E0FEA3E0FF7C007D0A1200893D
:101570009000D1EEF0A3EFF0120E5E12085A1206A0
:10158000D07F0A121A1E9000C6EEF0A3EFF0121BD5
:101590009822082B00960096009600960833009635
:1015A00000960096009608CD020401030605FFFF91
:1015B00004D5000000006046009601040118006494
:1015C0000078004600460046004601020408050671
:1015D00007080000000000000000000000000000FC
:1015E00000000000000000000000000000000000FB
:1015F00000000000000000000000000000000000EB
:1016000000E4F554786DF6FF121BC18F54E554BF0A
:10161000FF06786E76058004786E76FF786F760523
:10162000E408F6787276FF787DF60876147885F609
:10163000087614788DF60876647895F6087664FF57
:10164000EF75F008A4247FF8E4F608F6EF75F008CB
:10165000A42481F8E4F608F6EF75F008A42483F8D2
:10166000E4F608F60FBF04D875466D22C0E0C0F05E
:10167000C083C082C0D075D000C000C004C005C007
:1016800006C007C28D758CD8758AF0051BE51B70E6
:1016900002051AAE1AFF7C007D64120089ED4C70C1
:1016A000219000C2E0FEA3E0FFD3940AEE94004034
:1016B00006A3EEF0A3EFF09000C2E4F0A3F0F51A59
:1016C000F51BD007D006D005D004D000D0D0D082F2
:1016D000D083D0F0D0E032FE0000FE0008FE00080B
:1016E000FE0010FE0010FE0018FE0018FE0020FE96
:1016F0000020FE00280000AD0000B50000BD000085
:10170000C5FE0000FE0008FE0050FE00400100C2C1
:101710000000220100BE0100D50100C00100D7FE7B
:1017200000940100AE0100B60100BFFE0058FE00AB
:1017300060FE00849000D7E0705504F0E4FEFDFCEC
:101740007401A804088002C333D8FCF9FB9000C0E0
:10175000E05BB50313EC2404FA7401A802088002CC
:10176000C333D8FC42068003E94206EF5BB50305AC
:10177000E942058011EC2404FB7401A803088002EF
:10178000C333D8FC42050CBC02B6EE5D786DF62280
:10179000E4FBEB25E025E024BDF812025DEF241800
:1017A000FFEE34FCFEED34FFFDEC34FFFCEB25E0F6
:1017B00025E0249DF8120276EB25E02400F874035E
:1017C000F20874E8F2EBC394045017EB25E0241000
:1017D000F8E4F208F2EB25E02408F87403F2087448
:1017E000E8F20BBB04AC22C0E0C0F0C083C082C0F2
:1017F000D075D01053B9FD75600074CD2560F8E642
:1018000075F003A42480F582E4341BF583E493741B
:101810000193FA740293F91202C0E56025E025E015
:1018200024ADF81202760560E560C3940440CB75E0
:101830001D00D0D0D082D083D0F0D0E032A907E410
:10184000FDFC74017E00A804088005C333CE33CEAE
:10185000D8F9FFE9FB7A00EAEF5B701DEC2402FF88
:1018600074017E00A807088005C333CE33CED8F9B3
:10187000FFEE5AFEEF5B4E600D7401A80408800273
:10188000C333D8FC42050CBC02B8AF0522E4FFFE0E
:1018900074CD2EF8E6901C839342070EBE04F1EF40
:1018A00042D4EF42F4EF42E4EFF452DC75AA3B7508
:1018B000BA0C43BA4043B92053B9BF8FB4E4F5B36F
:1018C00075B24E75B12075BBFF75A950F5AB75ACFF
:1018D0000375ADC075AEC0227820E2FE08E2FF8E2F
:1018E00056F5577D01ED25E02420F8E2FA08E2FBE9
:1018F000C39557EA955650048A568B57D3EB9FEA07
:101900009E4004AE02AF030DBD02DA786AE556F2DE
:1019100008E557F27868EEF208EFF222121A86E430
:10192000F55C74CD255CF8E675F003A42480F5829F
:10193000E4341BF583E493740193FA740293F9126F
:1019400002C0E55C25E025E024ADF8120276055CD6
:10195000E55CC3940440CB22E4FFFEEE75F008A4DE
:10196000247EF8E624FBFD18E634FFFCEE25E02497
:1019700019F9C3E39D19E39C400D7401A806088082
:1019800002C333D8FC42070EBE04D08F2522E4FEEA
:101990007C0474CD2CF8E6901C839342060CBC06A4
:1019A000F1EF6005EE42D48004EEF452D4EEF4FF81
:1019B00052F4EE42E4ED6005EE42EC8003EF52ECAF
:1019C000EF52DC221209AA1214851212C5120D3F21
:1019D0001219489000BEE0700D852256E52352563C
:1019E000E52452568003852556E5566004D20980C9
:1019F00002C209AF5612182D227E007FAEE4FDED23
:101A000025E024D2F582E4341AF583E493F4601DD2
:101A1000ED25E024D3F582E4341AF583E493FCEF5A
:101A20002DF582E43EF583ECF00DBD10D222755603
:101A3000007557AE7B017A00BFFF057F017E002253
:101A4000E5572FF582E43556F583E07A00FB9000E8
:101A5000C4E0FCA3E0FDAF037E00120077AA06AB52
:101A6000072243F80875CD4053CC7F43CC4043CC8C
:101A70002043CC1043CC0453CCFD43CB0243CB01D9
:101A800053CBBF43E80853E5FC43E30243F503436C
:101A9000900343ED032275BF0F000000000000001B
:101AA0000000000000000000000000D2D853B9FD83
:101AB00043B901E5B930E1FBE4F5BF22438901C236
:101AC0008DD2A953B8FDE4F51AF51B9000C2F0A31E
:101AD000F0A3F0A37464F0758CD8758AF0D28CD220
:101AE000AF220002010102010301040505060606FA
:101AF0000702080A09020A020B280C010D030E0155
:101B0000FF01E4FE7D0474CD2DF8E6901C83934222
:101B1000060DBD06F1EF6004EE428022EEF4528025
:101B200022EF600543D504800353D5FB53F5FB53E7
:101B3000E5FB43E30443ED04E49000D7F022E4F531
:101B4000E3439F10439F02FF0FBFFFFC539FEF75BE
:101B5000BE0EE4F5BFF5B97592762253BAFEE5B92B
:101B600020E004E51D6005E5B930E1FBE4F5BF5375
:101B7000B9FE53B9FD22AB07AA06D3EB9DEA9C4000
:101B800007EB9DFFEA9CFE22C3ED9BFFEC9AFE2231
:101B9000FF1BD5FF1BE8FF1BFBFF1C0EFF1C21FFDB
:101BA0001C34FF1C47FF1C5A75BF0F43B92053B9A3
:101BB000FD43BA01751D0143B901D2D822AB07AF6D
:101BC00004AE05C2AFA803A607E804F8A606D2AF84
:101BD00022E4FFF582F5837420FEE493F42FFFA343
:101BE000EEB583F62253B9EF78D6A6B708A6B608A5
:101BF000A6B578D512025D2253B9EF78D6A6EB08C8
:101C0000A6EA08A6E978D512025D2253B9EF78D684
:101C1000A6F308A6F208A6F178D512025D2253B900
:101C2000EF78D6A6FB08A6FA08A6F978D512025DC9
:101C30002243B91078D6A6B708A6B608A6B578D5B7
:101C400012025D2243B91078D6A6EB08A6EA08A6D0
:101C5000E978D512025D2243B91078D6A6F308A61A
:101C6000F208A6F178D512025D2243B91078D6A603
:101C7000FB08A6FA08A6F978D512025D22C2DA534B
:101C8000D80F43D8D0D2D8D2D922EF6003D2922233
:101C9000C29222010204081020408046FFFFFFFF8D
:101CA000FFFFFFFFFFFFFFFFFFFFFFFFFFFFFFFF44
:00000001FF
